{"abi":[{"type":"function","name":"constructTokenURI","inputs":[{"name":"params","type":"tuple","internalType":"struct NFTDescriptor.ConstructTokenURIParams","components":[{"name":"tokenId","type":"uint256","internalType":"uint256"},{"name":"quoteTokenAddress","type":"address","internalType":"address"},{"name":"baseTokenAddress","type":"address","internalType":"address"},{"name":"quoteTokenSymbol","type":"string","internalType":"string"},{"name":"baseTokenSymbol","type":"string","internalType":"string"},{"name":"quoteTokenDecimals","type":"uint8","internalType":"uint8"},{"name":"baseTokenDecimals","type":"uint8","internalType":"uint8"},{"name":"flipRatio","type":"bool","internalType":"bool"},{"name":"tickLower","type":"int24","internalType":"int24"},{"name":"tickUpper","type":"int24","internalType":"int24"},{"name":"tickCurrent","type":"int24","internalType":"int24"},{"name":"tickSpacing","type":"int24","internalType":"int24"},{"name":"fee","type":"uint24","internalType":"uint24"},{"name":"poolAddress","type":"address","internalType":"address"}]}],"outputs":[{"name":"","type":"string","internalType":"string"}],"stateMutability":"pure"}],"bytecode":{"object":"0x615b4b610026600b82828239805160001a60731461001957fe5b30600052607381538281f3fe73000000000000000000000000000000000000000030146080604052600436106100355760003560e01c8063c49917d71461003a575b600080fd5b61004d610048366004613b4f565b610063565b60405161005a919061418f565b60405180910390f35b6060600061007e83610079856101800151610170565b6103b6565b905060006100b26100928560600151610471565b61009f8660800151610471565b6100ad876101a001516105dd565b6105f3565b905060006101006100c68660000151610625565b6100d38760800151610471565b6100e088602001516105dd565b6100ed89604001516105dd565b6100fb8a6101800151610170565b610700565b9050600061011561011087610736565b610971565b9050610145848484846040516020016101319493929190613ed0565b604051602081830303815290604052610971565b604051602001610155919061414a565b6040516020818303038152906040529450505050505b919050565b606062ffffff821661019b5750604080518082019091526002815261302560f01b602082015261016b565b816000805b62ffffff8316156101eb5760ff8116156101bc576001016101d5565b600a62ffffff84160662ffffff166000146101d5576001015b600190910190600a62ffffff84160492506101a0565b6101f3613a49565b6000600584106102e8576000600461020e8660ff8716610abd565b101561021b57600161021e565b60005b60ff90811691506102329085166001610abd565b61023d866005610abd565b106102695761026461025360ff86166001610abd565b61025e876005610abd565b90610abd565b61026c565b60005b60ff85166080850181905290925061028b9060019061025e9085610b1a565b60ff90811660a085015260808401516102b29183916102ac91166001610abd565b90610b1a565b60ff90811660408501526102da9082906102ac906102d39088166001610b1a565b8590610b1a565b60ff16602084015250610358565b6102f3600585610abd565b6002608084018190529091506103119060019061025e908490610b1a565b60ff90811660a08401526103339061032c9085166002610b1a565b8290610b1a565b60ff1660208301819052610348906002610abd565b60ff166040830152600160c08301525b6103776103688560ff8616610abd565b62ffffff891690600a0a610b74565b8252600160e08301526004841161038f57600061039a565b61039a846004610abd565b60ff1660608301526103ab82610bdb565b979650505050505050565b6060816103c68460600151610471565b6103d38560800151610471565b61040c8660e00151156103eb578661012001516103f2565b8661010001515b8761016001518860c001518960a001518a60e00151610deb565b6104458760e00151156104245787610100015161042b565b8761012001515b8861016001518960c001518a60a001518b60e00151610deb565b604051602001610459959493929190613fae565b60405160208183030381529060405290505b92915050565b6060816000805b82518160ff1610156104bd57828160ff168151811061049357fe5b6020910101516001600160f81b031916601160f91b14156104b5576001909101905b600101610478565b5060ff8116156105d55760008160ff1683510167ffffffffffffffff811180156104e657600080fd5b506040519080825280601f01601f191660200182016040528015610511576020820181803683370190505b5090506000805b84518160ff1610156105c857848160ff168151811061053357fe5b6020910101516001600160f81b031916601160f91b141561057d57601760fa1b83838060010194508151811061056557fe5b60200101906001600160f81b031916908160001a9053505b848160ff168151811061058c57fe5b602001015160f81c60f81b8383806001019450815181106105a957fe5b60200101906001600160f81b031916908160001a905350600101610518565b508194505050505061016b565b509192915050565b606061046b6001600160a01b0383166014610f00565b60608383838660405160200161060c9493929190613da7565b60405160208183030381529060405290505b9392505050565b60608161064a57506040805180820190915260018152600360fc1b602082015261016b565b8160005b811561066257600101600a8204915061064e565b60008167ffffffffffffffff8111801561067b57600080fd5b506040519080825280601f01601f1916602001820160405280156106a6576020820181803683370190505b50859350905060001982015b83156106f757600a840660300160f81b828280600190039350815181106106d557fe5b60200101906001600160f81b031916908160001a905350600a840493506106b2565b50949350505050565b6060838584848960405160200161071b959493929190614067565b60405160208183030381529060405290505b95945050505050565b60606000604051806102a0016040528061075385602001516105dd565b815260200161076585604001516105dd565b8152602001846101a001516001600160a01b0316815260200184606001518152602001846080015181526020016107a0856101800151610170565b815260200184610100015160020b815260200184610120015160020b815260200184610160015160020b81526020016107e985610100015186610120015187610140015161105f565b60000b81526020018460000151815260200161081385602001516001600160a01b03166088611096565b815260200161083085604001516001600160a01b03166088611096565b815260200161084d85602001516001600160a01b03166000611096565b815260200161086a85604001516001600160a01b03166000611096565b815260200161089d61088f86602001516001600160a01b0316601088600001516110a5565b600060ff60106101126110c5565b81526020016108d06108c286604001516001600160a01b0316601088600001516110a5565b600060ff60646101e46110c5565b81526020016108f561088f86602001516001600160a01b0316602088600001516110a5565b815260200161091a6108c286604001516001600160a01b0316602088600001516110a5565b815260200161093f61088f86602001516001600160a01b0316603088600001516110a5565b81526020016109646108c286604001516001600160a01b0316603088600001516110a5565b9052905061061e8161110d565b6060815160001415610992575060408051602081019091526000815261016b565b6000604051806060016040528060408152602001614db0604091399050600060038451600201816109bf57fe5b04600402905060008160200167ffffffffffffffff811180156109e157600080fd5b506040519080825280601f01601f191660200182016040528015610a0c576020820181803683370190505b509050818152600183018586518101602084015b81831015610a78576003830192508251603f8160121c168501518253600182019150603f81600c1c168501518253600182019150603f8160061c168501518253600182019150603f8116850151825350600101610a20565b600389510660018114610a925760028114610aa357610aaf565b613d3d60f01b600119830152610aaf565b603d60f81b6000198301525b509398975050505050505050565b600082821115610b14576040805162461bcd60e51b815260206004820152601e60248201527f536166654d6174683a207375627472616374696f6e206f766572666c6f770000604482015290519081900360640190fd5b50900390565b60008282018381101561061e576040805162461bcd60e51b815260206004820152601b60248201527f536166654d6174683a206164646974696f6e206f766572666c6f770000000000604482015290519081900360640190fd5b6000808211610bca576040805162461bcd60e51b815260206004820152601a60248201527f536166654d6174683a206469766973696f6e206279207a65726f000000000000604482015290519081900360640190fd5b818381610bd357fe5b049392505050565b60606000826020015160ff1667ffffffffffffffff81118015610bfd57600080fd5b506040519080825280601f01601f191660200182016040528015610c28576020820181803683370190505b5090508260e0015115610c6257602560f81b81600183510381518110610c4a57fe5b60200101906001600160f81b031916908160001a9053505b8260c0015115610cbf57600360fc1b81600081518110610c7e57fe5b60200101906001600160f81b031916908160001a905350601760f91b81600181518110610ca757fe5b60200101906001600160f81b031916908160001a9053505b608083015160ff165b60a0840151610cdb9060ff166001610b1a565b811015610d1257603060f81b828281518110610cf357fe5b60200101906001600160f81b031916908160001a905350600101610cc8565b505b82511561046b576000836060015160ff16118015610d3f5750826060015160ff16836040015160ff16145b15610d825760408301805160ff600019820181169092528251601760f91b92849216908110610d6a57fe5b60200101906001600160f81b031916908160001a9053505b8251610d9490603090600a9006610b1a565b60f81b818460400180518091906001900360ff1660ff1681525060ff1681518110610dbb57fe5b60200101906001600160f81b031916908160001a905350600a8360000181815181610de257fe5b04905250610d14565b606084600281900b620d89e71981610dff57fe5b050260020b8660020b1415610e59578115610e35576040518060400160405280600381526020016209a82b60eb1b815250610e52565b6040518060400160405280600381526020016226a4a760e91b8152505b905061072d565b84600281900b620d89e881610e6a57fe5b050260020b8660020b1415610ec0578115610ea0576040518060400160405280600381526020016226a4a760e91b815250610e52565b5060408051808201909152600381526209a82b60eb1b602082015261072d565b6000610ecb87611385565b90508215610eed57610eea600160c01b6001600160a01b038316610b74565b90505b610ef88186866116b7565b91505061072d565b606060008260020260020167ffffffffffffffff81118015610f2157600080fd5b506040519080825280601f01601f191660200182016040528015610f4c576020820181803683370190505b509050600360fc1b81600081518110610f6157fe5b60200101906001600160f81b031916908160001a905350600f60fb1b81600181518110610f8a57fe5b60200101906001600160f81b031916908160001a905350600160028402015b600181111561100b576f181899199a1a9b1b9c1cb0b131b232b360811b85600f1660108110610fd457fe5b1a60f81b828281518110610fe457fe5b60200101906001600160f81b031916908160001a90535060049490941c9360001901610fa9565b50831561061e576040805162461bcd60e51b815260206004820181905260248201527f537472696e67733a20686578206c656e67746820696e73756666696369656e74604482015290519081900360640190fd5b60008360020b8260020b1215611078575060001961061e565b8260020b8260020b131561108e5750600161061e565b50600061061e565b606061061e83831c6003611877565b600060ff826110b48686611931565b02816110bc57fe5b06949350505050565b60606111036110fe846102ac6110db888a610abd565b6110f86110e8888a610abd565b6110f28d8d610abd565b90611938565b90610b74565b610625565b9695505050505050565b606061111882611991565b6111348360000151846020015185606001518660800151611ff0565b61114b846060015185608001518660a0015161231b565b6111698560c001518660e0015187610100015188610120015161246b565b61118961117a876101400151610625565b8760c001518860e0015161274e565b61119c8761014001518860400151612b66565b6040516020018087805190602001908083835b602083106111ce5780518252601f1990920191602091820191016111af565b51815160209384036101000a600019018019909216911617905289519190930192890191508083835b602083106112165780518252601f1990920191602091820191016111f7565b51815160209384036101000a600019018019909216911617905288519190930192880191508083835b6020831061125e5780518252601f19909201916020918201910161123f565b51815160209384036101000a600019018019909216911617905287519190930192870191508083835b602083106112a65780518252601f199092019160209182019101611287565b51815160209384036101000a600019018019909216911617905286519190930192860191508083835b602083106112ee5780518252601f1990920191602091820191016112cf565b51815160209384036101000a600019018019909216911617905285519190930192850191508083835b602083106113365780518252601f199092019160209182019101611317565b5181516020939093036101000a6000190180199091169216919091179052651e17b9bb339f60d11b92019182525060408051808303601919018152600690920190529998505050505050505050565b60008060008360020b1261139c578260020b6113a4565b8260020b6000035b9050620d89e88111156113e2576040805162461bcd60e51b81526020600482015260016024820152601560fa1b604482015290519081900360640190fd5b6000600182166113f657600160801b611408565b6ffffcb933bd6fad37aa2d162d1a5940015b70ffffffffffffffffffffffffffffffffff169050600282161561143c576ffff97272373d413259a46990580e213a0260801c5b600482161561145b576ffff2e50f5f656932ef12357cf3c7fdcc0260801c5b600882161561147a576fffe5caca7e10e4e61c3624eaa0941cd00260801c5b6010821615611499576fffcb9843d60f6159c9db58835c9266440260801c5b60208216156114b8576fff973b41fa98c081472e6896dfb254c00260801c5b60408216156114d7576fff2ea16466c96a3843ec78b326b528610260801c5b60808216156114f6576ffe5dee046a99a2a811c461f1969c30530260801c5b610100821615611516576ffcbe86c7900a88aedcffc83b479aa3a40260801c5b610200821615611536576ff987a7253ac413176f2b074cf7815e540260801c5b610400821615611556576ff3392b0822b70005940c7a398e4b70f30260801c5b610800821615611576576fe7159475a2c29b7443b29c7fa6e889d90260801c5b611000821615611596576fd097f3bdfd2022b8845ad8f792aa58250260801c5b6120008216156115b6576fa9f746462d870fdf8a65dc1f90e061e50260801c5b6140008216156115d6576f70d869a156d2a1b890bb3df62baf32f70260801c5b6180008216156115f6576f31be135f97d08fd981231505542fcfa60260801c5b62010000821615611617576f09aa508b5b7a84e1c677de54f3e99bc90260801c5b62020000821615611637576e5d6af8dedb81196699c329225ee6040260801c5b62040000821615611656576d2216e584f5fa1ea926041bedfe980260801c5b62080000821615611673576b048a170391f7dc42444e8fa20260801c5b60008460020b131561168e57806000198161168a57fe5b0490505b6401000000008106156116a25760016116a5565b60005b60ff16602082901c0192505050919050565b606060006116c6858585612bde565b905060006116d98283600160401b612ce0565b9050600160601b821080156117115761170a8272047bf19673df52e37f2410011d100000000000600160801b612ce0565b9150611726565b61172382620186a0600160801b612ce0565b91505b8160005b811561173e57600101600a8204915061172a565b6000190160008061174f8684612d8f565b915091508015611760576001909201915b611768613a49565b85156117d55761178761177f602b60ff8716610abd565b600790610b1a565b60ff9081166020830152600260808301526117ad906001906102ac90602b908816610abd565b60ff90811660a083015260208201516117c891166001610abd565b60ff16604082015261184c565b60098460ff161061181e576117ee60ff85166004610abd565b60ff16602082018190526005608083015261180a906001610abd565b60ff1660a08201526004604082015261184c565b60066020820152600560408201819052611843906001906102ac9060ff881690610abd565b60ff1660608201525b82815285151560c0820152600060e082015261186781610bdb565b9c9b505050505050505050505050565b606060008260020267ffffffffffffffff8111801561189557600080fd5b506040519080825280601f01601f1916602001820160405280156118c0576020820181803683370190505b5080519091505b8015611929576f181899199a1a9b1b9c1cb0b131b232b360811b85600f16601081106118ef57fe5b1a60f81b82600183038151811061190257fe5b60200101906001600160f81b031916908160001a90535060049490941c93600019016118c7565b509392505050565b1c60ff1690565b6000826119475750600061046b565b8282028284828161195457fe5b041461061e5760405162461bcd60e51b8152600401808060200182810382526021815260200180614fcf6021913960400191505060405180910390fd5b6060611a268261016001516040516020018080614b896081913960810182805190602001908083835b602083106119d95780518252601f1990920191602091820191016119ba565b6001836020036101000a038019825116818451168082178552505050505050905001806813979f1e17b9bb339f60b91b815250600901915050604051602081830303815290604052610971565b611b88836101e0015184610200015185610180015160405160200180806146c66063913960630184805190602001908083835b60208310611a785780518252601f199092019160209182019101611a59565b51815160209384036101000a600019018019909216911617905265272063793d2760d01b919093019081528551600690910192860191508083835b60208310611ad25780518252601f199092019160209182019101611ab3565b51815160209384036101000a6000190180199092169116179052722720723d273132307078272066696c6c3d272360681b919093019081528451601390910192850191508083835b60208310611b395780518252601f199092019160209182019101611b1a565b6001836020036101000a038019825116818451168082178552505050505050905001806813979f1e17b9bb339f60b91b8152506009019350505050604051602081830303815290604052610971565b611bd9846102200151856102400151866101a0015160405160200180806146c660639139606301848051906020019080838360208310611a785780518252601f199092019160209182019101611a59565b611cee856102600151866102800151876101c0015160405160200180806146c66063913960630184805190602001908083835b60208310611c2b5780518252601f199092019160209182019101611c0c565b51815160209384036101000a600019018019909216911617905265272063793d2760d01b919093019081528551600690910192860191508083835b60208310611c855780518252601f199092019160209182019101611c66565b51815160001960209485036101000a01908116901991909116179052722720723d273130307078272066696c6c3d272360681b939091019283528451601390930192908501915080838360208310611b395780518252601f199092019160209182019101611b1a565b6101608601516040516020018060566144418239605601602c614df08239651e3232b3399f60d11b602c820152603201604b614b3e8239604b0186805190602001908083835b60208310611d535780518252601f199092019160209182019101611d34565b6001836020036101000a03801982511681845116808217855250505050505090500180615676603e9139603e0185805190602001908083835b60208310611dab5780518252601f199092019160209182019101611d8c565b6001836020036101000a03801982511681845116808217855250505050505090500180614c0a603e9139603e0184805190602001908083835b60208310611e035780518252601f199092019160209182019101611de4565b5181516020939093036101000a6000190180199091169216919091179052631110179f60e11b920191825250600401603b6143398239603b0183805190602001908083835b60208310611e675780518252601f199092019160209182019101611e48565b6001836020036101000a0380198251168184511680821785525050505050509050018061478660999139609901607f6152278239607f0160886155ee8239608801604161481f8239604101605d6157ae8239605d0160726152d3823960720160496142a2823960490160be614a80823960be0160716145528239607101607561516a82396075016066614860823960660160a4614e1c823960a40160856156b482397f3c6720636c69702d706174683d2275726c2823636f726e65727329223e00000060858201526b1e3932b1ba103334b6361e9160a11b60a2820152825160ae9091019060208401908083835b60208310611f745780518252601f199092019160209182019101611f55565b6001836020036101000a038019825116818451168082178552505050505050905001806148c660319139603101604e6142eb8239604e01605d6147298239605d016041614d6f82396041016052614c48823960520160756157398239607501955050505050506040516020818303038152906040529050919050565b60608382858488878a89604051602001808061589160259139602501607d614a038239607d0189805190602001908083835b602083106120415780518252601f199092019160209182019101612022565b51815160209384036101000a600019018019909216911617905264010714051160dd1b919093019081528a516005909101928b0191508083835b6020831061209a5780518252601f19909201916020918201910161207b565b6001836020036101000a038019825116818451168082178552505050505050905001806148f760799139607901608661580b823960860187805190602001908083835b602083106120fc5780518252601f1990920191602091820191016120dd565b51815160209384036101000a600019018019909216911617905264010714051160dd1b919093019081528851600590910192890191508083835b602083106121555780518252601f199092019160209182019101612136565b6001836020036101000a038019825116818451168082178552505050505050905001806144cd60859139608501607b61545c8239607b0185805190602001908083835b602083106121b75780518252601f199092019160209182019101612198565b51815160209384036101000a600019018019909216911617905264010714051160dd1b919093019081528651600590910192870191508083835b602083106122105780518252601f1990920191602091820191016121f1565b6001836020036101000a03801982511681845116808217855250505050505090500180614617605d9139605d0160a36150c7823960a30183805190602001908083835b602083106122725780518252601f199092019160209182019101612253565b51815160209384036101000a600019018019909216911617905264010714051160dd1b919093019081528451600590910192850191508083835b602083106122cb5780518252601f1990920191602091820191016122ac565b6001836020036101000a03801982511681845116808217855250505050505090500180614217608b9139608b01985050505050505050506040516020818303038152906040529050949350505050565b6060838383604051602001808061437460cd913960cd0184805190602001908083835b6020831061235d5780518252601f19909201916020918201910161233e565b6001836020036101000a03801982511681845116808217855250505050505090500180602f60f81b81525060010183805190602001908083835b602083106123b65780518252601f199092019160209182019101612397565b6001836020036101000a03801982511681845116808217855250505050505090500180615a3a6077913960770182805190602001908083835b6020831061240e5780518252601f1990920191602091820191016123ef565b5181516020939093036101000a60001901801990911692169190911790526a1e17ba32bc3a1f1e17b39f60a91b920191825250600b0160736158da8239607301935050505060405160208183030381529060405290509392505050565b606060008260000b6001146124d2578260000b600019146124a95760405180604001604052806005815260200164236e6f6e6560d81b8152506124cd565b6040518060400160405280600a81526020016911b330b23296b237bbb760b11b8152505b6124f4565b60405180604001604052806008815260200167023666164652d75760c41b8152505b90506000612503878787612e00565b9050818183836125128861304e565b60405160200180806c078ce40dac2e6d67a44eae4d85609b1b815250600d0186805190602001908083835b6020831061255c5780518252601f19909201916020918201910161253d565b5181516020939093036101000a600019018019909116921691909117905261149160f11b9201918252506002016077614ec0823960770185805190602001908083835b602083106125be5780518252601f19909201916020918201910161259f565b6001836020036101000a038019825116818451168082178552505050505050905001806145c36054913960540180700785ece7c78ce40dac2e6d67a44eae4d85607b1b81525060110184805190602001908083835b602083106126325780518252601f199092019160209182019101612613565b5181516020939093036101000a600019018019909116921691909117905261149160f11b9201918252506002016029614f3782396029016045614f8a823960450180681e3830ba3410321e9160b91b81525060090183805190602001908083835b602083106126b25780518252601f199092019160209182019101612693565b6001836020036101000a038019825116818451168082178552505050505050905001806151df6048913960480182805190602001908083835b6020831061270a5780518252601f1990920191602091820191016126eb565b6001836020036101000a0380198251168184511680821785525050505050509050019550505050505060405160208183030381529060405292505050949350505050565b6060600061275b846134b9565b90506000612768846134b9565b865183518251929350600490910191600a918201910160008061278b8a8a6135c3565b9150915061279e85600401600702610625565b8b6127ae86600401600702610625565b896127be87600401600702610625565b8a878760405160200180806152a6602d9139602d01806c1e3932b1ba103bb4b23a341e9160991b815250600d0189805190602001908083835b602083106128165780518252601f1990920191602091820191016127f7565b6001836020036101000a03801982511681845116808217855250505050505090500180614c9a603d9139603d01608d61594d8239608d0188805190602001908083835b602083106128785780518252601f199092019160209182019101612859565b5181516020939093036101000a60001901801990911692169190911790526a1e17ba32bc3a1f1e17b39f60a91b920191825250600b01602d615ae98239602d01806c1e3932b1ba103bb4b23a341e9160991b815250600d0187805190602001908083835b602083106128fb5780518252601f1990920191602091820191016128dc565b6001836020036101000a03801982511681845116808217855250505050505090500180614c9a603d9139603d016093614970823960930186805190602001908083835b6020831061295d5780518252601f19909201916020918201910161293e565b5181516020939093036101000a60001901801990911692169190911790526a1e17ba32bc3a1f1e17b39f60a91b920191825250600b01602d6146748239602d01806c1e3932b1ba103bb4b23a341e9160991b815250600d0185805190602001908083835b602083106129e05780518252601f1990920191602091820191016129c1565b6001836020036101000a03801982511681845116808217855250505050505090500180614c9a603d9139603d0160936154d7823960930184805190602001908083835b60208310612a425780518252601f199092019160209182019101612a23565b6001836020036101000a03801982511681845116808217855250505050505090500180615ab16038913960380160606159da82396060016064615063823960640160256146a1823960250183805190602001908083835b60208310612ab85780518252601f199092019160209182019101612a99565b51815160209384036101000a6000190180199092169116179052630383c16160e51b919093019081528451600490910192850191508083835b60208310612b105780518252601f199092019160209182019101612af1565b6001836020036101000a0380198251168184511680821785525050505050509050018061449760369139603601985050505050505050506040516020818303038152906040529750505050505050509392505050565b6060612b7283836138cf565b15612bc85760405160200180608d6153cf8239608d016073614ff082396073016071614cfe8239607101608a6153458239608a01608461556a82396084019050604051602081830303815290604052905061046b565b5060408051602081019091526000815292915050565b600080612bf9612bf460ff868116908616613932565b613997565b9050600081118015612c0c575060128111155b15612ccd578260ff168460ff161115612c7657612c40612c2d826002610b74565b6001600160a01b03871690600a0a611938565b91506002810660011415612c7157612c6e827003298b075b4b6a5240945790619b37fd4a600160801b612ce0565b91505b612cc8565b612c97612c84826002610b74565b6001600160a01b03871690600a0a610b74565b91506002810660011415612cc857612cc582600160801b7003298b075b4b6a5240945790619b37fd4a612ce0565b91505b611929565b50506001600160a01b0390921692915050565b6000808060001985870986860292508281109083900303905080612d165760008411612d0b57600080fd5b50829004905061061e565b808411612d2257600080fd5b6000848688096000868103871696879004966002600389028118808a02820302808a02820302808a02820302808a02820302808a02820302808a02909103029181900381900460010186841190950394909402919094039290920491909117919091029150509392505050565b600080600060058460ff161115612db757612db48560ff600419870116600a0a610b74565b94505b60006004600a8706119050612dcd86600a610b74565b95508015612ddc578560010195505b85620186a01415612df257600a86049550600191505b5084925090505b9250929050565b606060008260020b85850360020b81612e1557fe5b05905060048160020b13612e60576040518060400160405280601a81526020017f4d312031433431203431203130352031303520313435203134350000000000008152509150611929565b60088160020b13612ea8576040518060400160405280601981526020017f4d312031433333203439203937203131332031343520313435000000000000008152509150611929565b60108160020b13612ef0576040518060400160405280601981526020017f4d312031433333203537203839203131332031343520313435000000000000008152509150611929565b60208160020b13612f38576040518060400160405280601981526020017f4d312031433235203635203831203132312031343520313435000000000000008152509150611929565b60408160020b13612f80576040518060400160405280601981526020017f4d312031433137203733203733203132392031343520313435000000000000008152509150611929565b60808160020b13612fc8576040518060400160405280601881526020017f4d312031433920383120363520313337203134352031343500000000000000008152509150611929565b6101008160020b13613011576040518060400160405280601a81526020017f4d31203143312038392035372e352031343520313435203134350000000000008152509150611929565b505060408051808201909152601881527f4d3120314331203937203439203134352031343520313435000000000000000060208201529392505050565b6040805180820182526002815261373360f01b6020808301919091528251808401845260038082526203139360ec1b82840152845180860186528181526232313760e81b818501528551808701909652908552620ccccd60ea1b928501929092526060939091906001600087900b14806130cc57508560000b600019145b156132c3578560000b600019146130e357816130e5565b835b8660000b600019146130f757816130f9565b835b8760000b6000191461310b578361310d565b855b8860000b6000191461311f5783613121565b855b60405160200180806b1e31b4b931b6329031bc1e9160a11b815250600c0185805190602001908083835b6020831061316a5780518252601f19909201916020918201910161314b565b51815160209384036101000a600019018019909216911617905267383c111031bc9e9160c11b919093019081528651600890910192870191508083835b602083106131c65780518252601f1990920191602091820191016131a7565b6001836020036101000a03801982511681845116808217855250505050505090500180614cd76027913960270183805190602001908083835b6020831061321e5780518252601f1990920191602091820191016131ff565b51815160209384036101000a600019018019909216911617905267383c111031bc9e9160c11b919093019081528451600890910192850191508083835b6020831061327a5780518252601f19909201916020918201910161325b565b6001836020036101000a03801982511681845116808217855250505050505090500180614f60602a9139602a0194505050505060405160208183030381529060405294506134b0565b8383838360405160200180806b1e31b4b931b6329031bc1e9160a11b815250600c0185805190602001908083835b602083106133105780518252601f1990920191602091820191016132f1565b51815160209384036101000a600019018019909216911617905267383c111031bc9e9160c11b919093019081528651600890910192870191508083835b6020831061336c5780518252601f19909201916020918201910161334d565b51815160209384036101000a60001901801990921691161790527f70782220723d22347078222066696c6c3d22776869746522202f3e0000000000919093019081526b1e31b4b931b6329031bc1e9160a11b601b8201528551602790910192860191508083835b602083106133f25780518252601f1990920191602091820191016133d3565b51815160209384036101000a600019018019909216911617905267383c111031bc9e9160c11b919093019081528451600890910192850191508083835b6020831061344e5780518252601f19909201916020918201910161342f565b6001836020036101000a038019825116818451168082178552505050505050905001807f70782220723d22347078222066696c6c3d22776869746522202f3e0000000000815250601b0194505050505060405160208183030381529060405294505b50505050919050565b6060600060405180602001604052806000815250905060008360020b12156134ff5782600019029250604051806040016040528060018152602001602d60f81b81525090505b8061350c8460020b610625565b6040516020018083805190602001908083835b6020831061353e5780518252601f19909201916020918201910161351f565b51815160209384036101000a600019018019909216911617905285519190930192850191508083835b602083106135865780518252601f199092019160209182019101613567565b6001836020036101000a03801982511681845116808217855250505050505090500192505050604051602081830303815290604052915050919050565b60608060006002858501810b0590506201e847198160020b121561361f57604051806040016040528060018152602001600760fb1b815250604051806040016040528060018152602001603760f81b8152509250925050612df9565b620124f7198160020b121561366f57604051806040016040528060018152602001600760fb1b8152506040518060400160405280600481526020016331302e3560e01b8152509250925050612df9565b6161a7198160020b12156136bf57604051806040016040528060018152602001600760fb1b8152506040518060400160405280600581526020016431342e323560d81b8152509250925050612df9565b611387198160020b121561370d5760405180604001604052806002815260200161031360f41b81525060405180604001604052806002815260200161062760f31b8152509250925050612df9565b60008160020b12156137595760405180604001604052806002815260200161313160f01b81525060405180604001604052806002815260200161323160f01b8152509250925050612df9565b6113888160020b12156137a65760405180604001604052806002815260200161313360f01b81525060405180604001604052806002815260200161323360f01b8152509250925050612df9565b6161a88160020b12156137f35760405180604001604052806002815260200161313560f01b81525060405180604001604052806002815260200161323560f01b8152509250925050612df9565b620124f88160020b12156138415760405180604001604052806002815260200161062760f31b81525060405180604001604052806002815260200161191b60f11b8152509250925050612df9565b6201e8488160020b121561388f5760405180604001604052806002815260200161323160f01b81525060405180604001604052806002815260200161323760f01b8152509250925050612df9565b604051806040016040528060028152602001610c8d60f21b81525060405180604001604052806002815260200161323760f01b8152509250925050612df9565b6040805160208082018590526bffffffffffffffffffffffff19606085901b16828401528251603481840301815260549092019092528051910120600090613916846139ae565b60020260010160ff166000198161392957fe5b04119392505050565b60008183038183128015906139475750838113155b8061395c575060008312801561395c57508381135b61061e5760405162461bcd60e51b81526004018080602001828103825260248152602001806158b66024913960400191505060405180910390fd5b6000808212156139aa578160000361046b565b5090565b60008082116139bc57600080fd5b600160801b82106139cf57608091821c91015b600160401b82106139e257604091821c91015b64010000000082106139f657602091821c91015b620100008210613a0857601091821c91015b6101008210613a1957600891821c91015b60108210613a2957600491821c91015b60048210613a3957600291821c91015b6002821061016b57600101919050565b6040805161010081018252600080825260208201819052918101829052606081018290526080810182905260a0810182905260c0810182905260e081019190915290565b80356001600160a01b038116811461016b57600080fd5b8035801515811461016b57600080fd5b8035600281900b811461016b57600080fd5b600082601f830112613ad6578081fd5b813567ffffffffffffffff811115613aea57fe5b613afd601f8201601f19166020016141c2565b818152846020838601011115613b11578283fd5b816020850160208301379081016020019190915292915050565b803562ffffff8116811461016b57600080fd5b803560ff8116811461016b57600080fd5b600060208284031215613b60578081fd5b813567ffffffffffffffff80821115613b77578283fd5b81840191506101c0808387031215613b8d578384fd5b613b96816141c2565b905082358152613ba860208401613a8d565b6020820152613bb960408401613a8d565b6040820152606083013582811115613bcf578485fd5b613bdb87828601613ac6565b606083015250608083013582811115613bf2578485fd5b613bfe87828601613ac6565b608083015250613c1060a08401613b3e565b60a0820152613c2160c08401613b3e565b60c0820152613c3260e08401613aa4565b60e08201526101009150613c47828401613ab4565b828201526101209150613c5b828401613ab4565b828201526101409150613c6f828401613ab4565b828201526101609150613c83828401613ab4565b828201526101809150613c97828401613b2b565b828201526101a09150613cab828401613a8d565b91810191909152949350505050565b60008151613ccc8185602086016141e6565b9290920192915050565b7fe29aa0efb88f20444953434c41494d45523a204475652064696c6967656e636581527f20697320696d7065726174697665207768656e20617373657373696e6720746860208201527f6973204e46542e204d616b65207375726520746f6b656e20616464726573736560408201527f73206d617463682074686520657870656374656420746f6b656e732c2061732060608201527f746f6b656e2073796d626f6c73206d617920626520696d6974617465642e00006080820152609e0190565b632e372e3760e11b815260040190565b60007f54686973204e465420726570726573656e74732061206c69717569646974792082527f706f736974696f6e20696e206120556e6973776170205633200000000000000060208301528551613e05816039850160208a016141e6565b602d60f81b6039918401918201528551613e2681603a840160208a016141e6565b660103837b7b617160cd1b603a92909101918201527f546865206f776e6572206f662074686973204e46542063616e206d6f6469667960418201527f206f722072656465656d2074686520706f736974696f6e2e5c6e00000000000060618201526f02e372837b7b61020b2323932b9b99d160851b607b8201528451613eb381608b8401602089016141e6565b612e3760f11b608b92909101918201526103ab608d820185613cba565b683d913730b6b2911d1160b91b81528451600090613ef5816009850160208a016141e6565b71111610113232b9b1b934b83a34b7b7111d1160711b6009918401918201528551613f2781601b840160208a016141e6565b8551910190613f3d81601b8401602089016141e6565b6c1116101134b6b0b3b2911d101160991b601b92909101918201527f646174613a696d6167652f7376672b786d6c3b6261736536342c00000000000060288201528351613f918160428401602088016141e6565b61227d60f01b604292909101918201526044019695505050505050565b60006902ab734b9bbb0b81016960b51b82528651613fd381600a850160208b016141e6565b80830190506201016960ed1b80600a8301528751613ff881600d850160208c016141e6565b602f60f81b600d9390910192830152865161401a81600e850160208b016141e6565b600e92019182015284516140358160118401602089016141e6565b611e1f60f11b6011929091019182015283516140588160138401602088016141e6565b01601301979650505050505050565b60006901020b2323932b9b99d160b51b808352875161408d81600a860160208c016141e6565b612e3760f11b600a9185019182015287516140af81600c840160208c016141e6565b01600c8101919091528551906140cc826016830160208a016141e6565b8181019150506b02e372332b2902a34b2b91d160a51b601682015284516140fa8160228401602089016141e6565b6b02e372a37b5b2b71024a21d160a51b60229290910191820152835161412781602e8401602088016141e6565b61413d614138602e83850101613d97565b613cd6565b9998505050505050505050565b60007f646174613a6170706c69636174696f6e2f6a736f6e3b6261736536342c0000008252825161418281601d8501602087016141e6565b91909101601d0192915050565b60006020825282518060208401526141ae8160408501602087016141e6565b601f01601f19169190910160400192915050565b60405181810167ffffffffffffffff811182821017156141de57fe5b604052919050565b60005b838110156142015781810151838201526020016141e9565b83811115614210576000848401525b5050505056fe203c616e696d6174652061646469746976653d2273756d22206174747269627574654e616d653d2273746172744f6666736574222066726f6d3d2230252220746f3d22313030252220626567696e3d22307322206475723d223330732220726570656174436f756e743d22696e646566696e69746522202f3e3c2f74657874506174683e3c2f746578743e3c73746f70206f66667365743d222e39222073746f702d636f6c6f723d227768697465222073746f702d6f7061636974793d223022202f3e3c2f6c696e6561724772616469656e743e3c72656374207374796c653d2266696c7465723a2075726c28236631292220783d223070782220793d22307078222077696474683d22323930707822206865696768743d22353030707822202f3e3c6665496d61676520726573756c743d2270332220786c696e6b3a687265663d22646174613a696d6167652f7376672b786d6c3b6261736536342c3c67206d61736b3d2275726c2823666164652d73796d626f6c29223e3c726563742066696c6c3d226e6f6e652220783d223070782220793d22307078222077696474683d22323930707822206865696768743d22323030707822202f3e203c7465787420793d22373070782220783d2233327078222066696c6c3d2277686974652220666f6e742d66616d696c793d2227436f7572696572204e6577272c206d6f6e6f73706163652220666f6e742d7765696768743d223230302220666f6e742d73697a653d2233367078223e3c7376672077696474683d2232393022206865696768743d22353030222076696577426f783d2230203020323930203530302220786d6c6e733d22687474703a2f2f7777772e77332e6f72672f323030302f7376672270782c2030707829222063783d22307078222063793d223070782220723d22347078222066696c6c3d227768697465222f3e3c2f673e203c616e696d6174652061646469746976653d2273756d22206174747269627574654e616d653d2273746172744f6666736574222066726f6d3d2230252220746f3d22313030252220626567696e3d22307322206475723d223330732220726570656174436f756e743d22696e646566696e69746522202f3e203c2f74657874506174683e3c6d61736b2069643d22666164652d757022206d61736b436f6e74656e74556e6974733d226f626a656374426f756e64696e67426f78223e3c726563742077696474683d223122206865696768743d2231222066696c6c3d2275726c2823677261642d75702922202f3e3c2f6d61736b3e22207374726f6b653d227267626128302c302c302c302e332922207374726f6b652d77696474683d2233327078222066696c6c3d226e6f6e6522207374726f6b652d6c696e656361703d22726f756e6422202f3e203c616e696d6174652061646469746976653d2273756d22206174747269627574654e616d653d2273746172744f6666736574222066726f6d3d2230252220746f3d22313030252220626567696e3d22307322206475723d2233307322203c67207374796c653d227472616e73666f726d3a7472616e736c61746528323970782c20343434707829223e3c636972636c65207374796c653d227472616e73666f726d3a7472616e736c6174653364283c7376672077696474683d2732393027206865696768743d27353030272076696577426f783d2730203020323930203530302720786d6c6e733d27687474703a2f2f7777772e77332e6f72672f323030302f737667273e3c636972636c652063783d27203c67207374796c653d2266696c7465723a75726c2823746f702d726567696f6e2d626c7572293b207472616e73666f726d3a7363616c6528312e35293b207472616e73666f726d2d6f726967696e3a63656e74657220746f703b223e22202f3e3c6665426c656e64206d6f64653d226f7665726c61792220696e3d2270302220696e323d22703122202f3e3c6665426c656e64206d6f64653d226578636c7573696f6e2220696e323d22703222202f3e3c6665426c656e64206d6f64653d226f7665726c61792220696e323d2270332220726573756c743d22626c656e644f757422202f3e3c6665476175737369616e426c7572203c706174682069643d226d696e696d61702220643d224d3233342034343443323334203435372e393439203234322e323120343633203235332034363322202f3e3c6d61736b2069643d226e6f6e6522206d61736b436f6e74656e74556e6974733d226f626a656374426f756e64696e67426f78223e3c726563742077696474683d223122206865696768743d2231222066696c6c3d22776869746522202f3e3c2f6d61736b3e2220783d223070782220793d22307078222077696474683d22323930707822206865696768743d22353030707822202f3e203c616e696d6174652061646469746976653d2273756d22206174747269627574654e616d653d2273746172744f6666736574222066726f6d3d2230252220746f3d22313030252220626567696e3d22307322206475723d223330732220726570656174436f756e743d22696e646566696e69746522202f3e3c7465787420783d22313270782220793d22313770782220666f6e742d66616d696c793d2227436f7572696572204e6577272c206d6f6e6f73706163652220666f6e742d73697a653d2231327078222066696c6c3d227768697465223e3c747370616e2066696c6c3d2272676261283235352c3235352c3235352c302e3629223e4d696e205469636b3a203c2f747370616e3e3c74657874506174682073746172744f66667365743d222d31303025222066696c6c3d2277686974652220666f6e742d66616d696c793d2227436f7572696572204e6577272c206d6f6e6f73706163652220666f6e742d73697a653d22313070782220786c696e6b3a687265663d2223746578742d706174682d61223e3c6c696e6561724772616469656e742069643d22677261642d646f776e222078313d2230222078323d2231222079313d2230222079323d2231223e3c73746f70206f66667365743d22302e30222073746f702d636f6c6f723d227768697465222073746f702d6f7061636974793d223122202f3e3c73746f70206f66667365743d22302e39222073746f702d636f6c6f723d227768697465222073746f702d6f7061636974793d223022202f3e3c2f6c696e6561724772616469656e743e3c66696c7465722069643d226631223e3c6665496d61676520726573756c743d2270302220786c696e6b3a687265663d22646174613a696d6167652f7376672b786d6c3b6261736536342c3c7376672077696474683d2732393027206865696768743d27353030272076696577426f783d2730203020323930203530302720786d6c6e733d27687474703a2f2f7777772e77332e6f72672f323030302f737667273e3c726563742077696474683d27323930707827206865696768743d273530307078272066696c6c3d2723222f3e3c6665496d61676520726573756c743d2270322220786c696e6b3a687265663d22646174613a696d6167652f7376672b786d6c3b6261736536342c3c656c6c697073652063783d22353025222063793d22307078222072783d223138307078222072793d223132307078222066696c6c3d222330303022206f7061636974793d22302e383522202f3e3c2f673e707822206865696768743d2232367078222072783d22387078222072793d22387078222066696c6c3d227267626128302c302c302c302e362922202f3e70782220723d22347078222066696c6c3d22776869746522202f3e3c636972636c652063783d2231312e333437384c32342031324c31342e343334312031322e363532324c32322e333932332031384c31332e373831392031332e373831394c31382032322e333932334c31322e363532322031342e343334314c31322032344c31312e333437382031342e343334314c362032322e33393c726563742066696c6c3d226e6f6e652220783d223070782220793d22307078222077696474683d22323930707822206865696768743d22353030707822202f3e4142434445464748494a4b4c4d4e4f505152535455565758595a6162636465666768696a6b6c6d6e6f707172737475767778797a303132333435363738392b2f20786d6c6e733a786c696e6b3d27687474703a2f2f7777772e77332e6f72672f313939392f786c696e6b273e3c6c696e6561724772616469656e742069643d22677261642d73796d626f6c223e3c73746f70206f66667365743d22302e37222073746f702d636f6c6f723d227768697465222073746f702d6f7061636974793d223122202f3e3c73746f70206f66667365743d222e3935222073746f702d636f6c6f723d227768697465222073746f702d6f7061636974793d223022202f3e3c2f6c696e6561724772616469656e743e207374796c653d227472616e73666f726d3a7472616e736c61746528373270782c313839707829223e3c7265637420783d222d313670782220793d222d31367078222077696474683d22313830707822206865696768743d223138307078222066696c6c3d226e6f6e6522202f3e3c7061746820643d22207374796c653d227472616e73666f726d3a7472616e736c61746528373270782c313839707829223e70782220723d2232347078222066696c6c3d226e6f6e6522207374726f6b653d22776869746522202f3e3c7265637420783d222d313670782220793d222d31367078222077696474683d22313830707822206865696768743d223138307078222066696c6c3d226e6f6e6522202f3e536166654d6174683a206d756c7469706c69636174696f6e206f766572666c6f773c673e3c70617468207374796c653d227472616e73666f726d3a7472616e736c617465283670782c367078292220643d224d313220304c31322e3635323220392e35363538374c313820312e363037374c31332e373831392031302e323138314c32322e3339323320364c31342e34333431203c70617468207374726f6b652d6c696e656361703d22726f756e642220643d224d38203943382e30303030342032322e393439342031362e32303939203238203237203238222066696c6c3d226e6f6e6522207374726f6b653d22776869746522202f3e20726570656174436f756e743d22696e646566696e69746522202f3e3c2f74657874506174683e3c74657874506174682073746172744f66667365743d222d353025222066696c6c3d2277686974652220666f6e742d66616d696c793d2227436f7572696572204e6577272c206d6f6e6f73706163652220666f6e742d73697a653d22313070782220786c696e6b3a687265663d2223746578742d706174682d61223e3c6d61736b2069643d22666164652d646f776e22206d61736b436f6e74656e74556e6974733d226f626a656374426f756e64696e67426f78223e3c726563742077696474683d223122206865696768743d2231222066696c6c3d2275726c2823677261642d646f776e2922202f3e3c2f6d61736b3e22207374726f6b653d2272676261283235352c3235352c3235352c3129222066696c6c3d226e6f6e6522207374726f6b652d6c696e656361703d22726f756e6422202f3e3c2f673e696e3d22626c656e644f75742220737464446576696174696f6e3d22343222202f3e3c2f66696c7465723e203c636c6970506174682069643d22636f726e657273223e3c726563742077696474683d2232393022206865696768743d22353030222072783d223432222072793d22343222202f3e3c2f636c6970506174683e203c67207374796c653d227472616e73666f726d3a7472616e736c61746528323970782c20333834707829223e3c6c696e6561724772616469656e742069643d22677261642d7570222078313d2231222078323d2230222079313d2231222079323d2230223e3c73746f70206f66667365743d22302e30222073746f702d636f6c6f723d227768697465222073746f702d6f7061636974793d223122202f3e32334c31302e323138312031332e373831394c312e363037372031384c392e35363538372031322e363532324c302031324c392e35363538372031312e333437384c312e3630373720364c31302e323138312031302e323138314c3620312e363037374c31312e3334373820392e35363538374c313220305a222066696c6c3d22776869746522202f3e3c67207374796c653d227472616e73666f726d3a7472616e736c6174652832323670782c20333932707829223e3c726563742077696474683d223336707822206865696768743d2233367078222072783d22387078222072793d22387078222066696c6c3d226e6f6e6522207374726f6b653d2272676261283235352c3235352c3235352c302e322922202f3e3c74657874506174682073746172744f66667365743d22353025222066696c6c3d2277686974652220666f6e742d66616d696c793d2227436f7572696572204e6577272c206d6f6e6f73706163652220666f6e742d73697a653d22313070782220786c696e6b3a687265663d2223746578742d706174682d61223e3c7465787420783d22313270782220793d22313770782220666f6e742d66616d696c793d2227436f7572696572204e6577272c206d6f6e6f73706163652220666f6e742d73697a653d2231327078222066696c6c3d227768697465223e3c747370616e2066696c6c3d2272676261283235352c3235352c3235352c302e3629223e4d6178205469636b3a203c2f747370616e3e3c616e696d6174655472616e73666f726d206174747269627574654e616d653d227472616e73666f726d2220747970653d22726f74617465222066726f6d3d22302031382031382220746f3d2233363020313820313822206475723d223130732220726570656174436f756e743d22696e646566696e697465222f3e3c2f673e3c2f673e3c706174682069643d22746578742d706174682d612220643d224d34302031322048323530204132382032382030203020312032373820343020563436302041323820323820302030203120323530203438382048343020413238203238203020302031203132203436302056343020413238203238203020302031203430203132207a22202f3e222f3e3c6665496d61676520726573756c743d2270312220786c696e6b3a687265663d22646174613a696d6167652f7376672b786d6c3b6261736536342c3c6d61736b2069643d22666164652d73796d626f6c22206d61736b436f6e74656e74556e6974733d227573657253706163654f6e557365223e3c726563742077696474683d22323930707822206865696768743d223230307078222066696c6c3d2275726c2823677261642d73796d626f6c2922202f3e3c2f6d61736b3e3c2f646566733e3c7265637420783d22302220793d2230222077696474683d2232393022206865696768743d22353030222072783d223432222072793d223432222066696c6c3d227267626128302c302c302c302922207374726f6b653d2272676261283235352c3235352c3235352c302e322922202f3e3c2f673e3c66696c7465722069643d22746f702d726567696f6e2d626c7572223e3c6665476175737369616e426c757220696e3d22536f75726365477261706869632220737464446576696174696f6e3d22323422202f3e3c2f66696c7465723e3c2f74657874506174683e203c74657874506174682073746172744f66667365743d223025222066696c6c3d2277686974652220666f6e742d66616d696c793d2227436f7572696572204e6577272c206d6f6e6f73706163652220666f6e742d73697a653d22313070782220786c696e6b3a687265663d2223746578742d706174682d61223e3c7465787420746578742d72656e646572696e673d226f7074696d697a655370656564223e5369676e6564536166654d6174683a207375627472616374696f6e206f766572666c6f773c7265637420783d2231362220793d223136222077696474683d2232353822206865696768743d22343638222072783d223236222072793d223236222066696c6c3d227267626128302c302c302c302922207374726f6b653d2272676261283235352c3235352c3235352c302e322922202f3e3c7465787420783d22313270782220793d22313770782220666f6e742d66616d696c793d2227436f7572696572204e6577272c206d6f6e6f73706163652220666f6e742d73697a653d2231327078222066696c6c3d227768697465223e3c747370616e2066696c6c3d2272676261283235352c3235352c3235352c302e3629223e49443a203c2f747370616e3e3c726563742077696474683d223336707822206865696768743d2233367078222072783d22387078222072793d22387078222066696c6c3d226e6f6e6522207374726f6b653d2272676261283235352c3235352c3235352c302e322922202f3e3c2f746578743e3c7465787420793d2231313570782220783d2233327078222066696c6c3d2277686974652220666f6e742d66616d696c793d2227436f7572696572204e6577272c206d6f6e6f73706163652220666f6e742d7765696768743d223230302220666f6e742d73697a653d2233367078223e3c2f746578743e3c2f673e3c67207374796c653d227472616e73666f726d3a7472616e736c6174652832323670782c20343333707829223e203c67207374796c653d227472616e73666f726d3a7472616e736c61746528323970782c20343134707829223ea2646970667358221220fd15494bff4a2089e558801b3e939ca22c69d47ac1f1415cc3ef9494f46bed3864736f6c63430007060033","linkReferences":{}},"methodIdentifiers":{"constructTokenURI(NFTDescriptor.ConstructTokenURIParams)":"c49917d7"},"id":101}